:0200000490006A
:10000000A8770020C903009049880090197D0090CE
:100010004188009099200090114701900000000055
:100020000000000000000000000000009997009010
:10003000A120009000000000F1880090019900903C
:10004000E3030090E3030090E3030090E3030090D8
:10005000E3030090E3030090E3030090E3030090C8
:10006000E3030090E3030090E3030090E3030090B8
:10007000E3030090E3030090E3030090E3030090A8
:10008000E3030090E3030090E3030090E303009098
:10009000E3030090E3030090E3030090E303009088
:1000A000E3030090E3030090E3030090E303009078
:1000B000E3030090E3030090E3030090E303009068
:1000C000E3030090E3030090E3030090E303009058
:1000D000E3030090E3030090E3030090E303009048
:1000E000E3030090E303009000000000E3030090AE
:1000F000E3030090E3030090E3030090E303009028
:10010000E3030090E18B0090899B0090E303009053
:10011000E3030090E3030090E3030090E303009007
:10012000E3030090E3030090E3030090E3030090F7
:10013000E3030090E3030090E3030090E3030090E7
:1001400000000000000000000000000000000000AF
:10015000E3030090E3030090E3030090E3030090C7
:10016000E3030090E3030090E3030090E3030090B7
:10017000E3030090E3030090E3030090E3030090A7
:10018000E3030090E3030090E3030090E303009097
:10019000E3030090E3030090E3030090E303009087
:1001A000B9830090E3030090E3030090E303009021
:1001B000E3030090E3030090E3030090E303009067
:1001C000E3030090E3030090E3030090E303009057
:1001D000E3030090E3030090E3030090E303009047
:1001E000E3030090E3030090E3030090E303009037
:1001F000E3030090E3030090E3030090E303009027
:10020000E3030090E3030090E3030090E303009016
:10021000E3030090E3030090E3030090E303009006
:10022000E3030090E3030090E3030090000000006C
:10023000E3030090E303009000000000E30300905C
:10024000E3030090E3030090E3030090E3030090D6
:10025000E3030090E3030090E3030090E3030090C6
:10026000E3030090E3030090E3030090E3030090B6
:10027000E3030090E3030090E3030090000000001C
:10028000E3030090E3030090E3030090000000000C
:1002900000000000E303009000F002F800F085F891
:1002A00014A696E8000CB244B344DA4501D100F03C
:1002B0007CF8BAE80F000FA696E83000A5EB04051D
:1002C00004EB0607AAEB0704A7F101074FEA15158F
:1002D0004FEA3414A4F10104AC4201D300F065F8F4
:1002E00013F0010F18BFFB1A43F0010300F001F8EF
:1002F000DBE7184770941500909415000A444FF0FE
:10030000000C10F8013B13F0070408BF10F8014B74
:100310001D1108BF10F8015B641E05D010F8016BB9
:10032000641E01F8016BF9D113F0080F1EBF10F81D
:10033000014BAD1C0C1B09D16D1E58BF01F801CB40
:10034000FAD505E014F8016B01F8016B6D1EF9D5C3
:100350009142D6D37047000070470000002300246C
:1003600000250026103A28BF78C1FBD8520728BFC5
:1003700030C148BF0B607047662918F020A064297F
:1003800000F02C81732900F08886002070471FB58B
:1003900058F008F800F0EAFE04000020002157F0B1
:1003A000EBFFE0601FBD10B510BD00F0EBFF114684
:1003B000FFF7EDFF45F0CCFC01F009F803B4FFF7BF
:1003C000F2FF03BC16F09CFC09488047094800472F
:1003D000FEE7FEE7FEE7FEE7FEE7FEE7FEE7FEE7F5
:1003E000FEE7FEE704480549054A064B7047000052
:1003F000A99A009099020090A8270020A8770020D1
:10040000A8470020A8470020704753EA020C00F0DC
:1004100069802DE9F04B4FF00006002B1FBFB3FAA7
:1004200083F503FA05F424FA05F65E4012BF16437D
:10043000B2FA82F502FA05F4C5F120051EBF22FAD0
:1004400005FC44EA0C04203556EA044C4FEA1444F7
:1004500018BF641C4FF000084FF00009904271EB88
:10046000030C39D3002919BFB1FA81F701FA07F655
:10047000B0FA80F700FA07F6C7F120071EBF20FA8E
:1004800007FC46EA0C062037B6FBF4FCA7EB050791
:10049000103F07F01F0BCBF120062CFA06F60CFAE2
:1004A0000BFB44BFB3460026202FA4BF5E464FF08F
:1004B000000B5BEA060C08BF4FF0010B19EB0B09B0
:1004C00048EB0608ABFB027C06FB02CC0BFB03CC23
:1004D000C01B71EB0C01C1E70B4602464146484682
:1004E000BDE8F08B13B5084318BF4FF0FF3001464D
:1004F000AFF30080BDE81C40704700000FB4044912
:1005000010B503AA029800F0CDFD10BC5DF814FBF5
:100510005C1900200FB41CB5074B06AA7B44694642
:100520000090059800F08FFD0020694600F09EFDC8
:100530001CBC5DF814FB00004D0B000070B50446B8
:1005400085690068C10601D5302600E02026C00775
:1005500007D070BDD4E9012130469047206A401C85
:1005600020626D1EF6D570BD70B5044685690078B1
:10057000C00707D170BDD4E9012120209047206A2F
:10058000401C20626D1EF6D570BD70B50C46054648
:10059000012A05D02878800600D5EA69002302E008
:1005A000012305E05B1C934202D2E05C0028F9D1F4
:1005B000A869E618C01AA861286A18442862284663
:1005C000FFF7BCFF04E0D5E9012114F8010B9047C7
:1005D000B442F8D32846FFF7C7FF70BD2DE9F041BC
:1005E0000646002410687529314616A510D0AFF3D1
:1005F0000080002802DA404213A507E031688A072C
:1006000001D512A502E0490704D511A5012401E096
:10061000AFF3008000210A2206F1240709E0B0FBB5
:10062000F2FCB0FBF2F302FB1C00303078541846A9
:10063000491C0028F3D123462A463046BDE8F04144
:1006400000F094BA000000002D0000002B00000014
:10065000200000002DE9F05F894604464FF0000AB3
:10066000DFF824B1FB44C0F820A02046E1688847A9
:1006700000287DD0252806D0D4E901219047206AA2
:10068000401C2062F1E700255F462046E16888476C
:100690002028064607DB312E05D2B81910F8200CA9
:1006A00008B10543F1E7A80701D525F00405C4F812
:1006B0001CA00027C4F818A02A2E09D0304657F0F5
:1006C00053FE38B304EB8708303EC8F8186019E0D1
:1006D00059F8041B204604EB87029161E1688847C2
:1006E000012F064618D1E069002820DA25F0200500
:1006F0001DE0D8F8180000EB800006EB4000303811
:10070000C8F818002046E1688847064657F02CFED6
:100710000028EED1012F0AD02E2E08D12046E16804
:1007200088477F1C0646022F45F02005C4DBA069E0
:10073000002803DA404245F00105A061E80701D036
:1007400025F01005A6B1A6F14100192802D82036DF
:1007500045F400654A463146204625604D46FFF780
:100760000BFE60B1012807D0ED1D25F0070000E069
:1007700007E000F1080978E705F1040975E730465C
:100780007AE7206ABDE8F09F5A7D050010B504465F
:1007900003E020F0EDFC401C09D014F8010B0549E2
:1007A0000028F6D1BDE810400A2020F0E1BC4FF04F
:1007B000FF3010BD5C1900200EB5054614460E46EC
:1007C00013A000F08CFC284600F089FC16A000F075
:1007D00086FC304600F083FC15A000F080FC002170
:1007E0008DF80B100A210DF10A008DF80A1008E0AF
:1007F00094FBF1F201FB124294FBF1F4303200F869
:10080000012D002CF4DC00F06AFC00F05DFC00001F
:100810002A2A2A20617373657274696F6E2066617B
:10082000696C65643A2000002C2066696C652000C4
:100830002C206C696E65200040EA0103024630B549
:100840009B0710D14FF0013400E008C208C91D1BFE
:100850009D4315EAC41FF8D013F0FF0102F8011BF5
:100860000DD01B0AF8E711F8013B002B02F8013B01
:1008700005D011F8013B002B02F8013BF3D130BD4C
:1008800010B5431C02E010F8011B71B18107FAD1C9
:100890004FF0013202C88C1A8C4314EAC211F9D00D
:1008A000C01A0A0603D0C01E10BDC01A10BD0A042B
:1008B00001D0801E10BD0902FCD0401E10BD032ACD
:1008C00040F2308010F0030C00F0158011F8013B6D
:1008D000BCF1020F624498BF11F801CB00F8013B54
:1008E00038BF11F8013BA2F1040298BF00F801CB18
:1008F00038BF00F8013B11F0030300F06780083AAD
:10090000C0F0088051F8043B083A51F804CBA0E845
:100910000810F5E7121D5CBF51F8043B40F8043B9A
:10092000AFF30080D20724BF11F8013B11F801CBCF
:1009300048BF11F8012B24BF00F8013B00F801CBA0
:1009400048BF00F8012B7047431A28BF9A427FF630
:10095000B6AF10441144032A40F2268010F0030F72
:100960001EBF11F8013D521E00F8013D10F0030FAB
:100970007FF4F6AF11F0030300F0CE83083AC0F025
:100980000B8051F8043D083A51F804CD40F8043D7D
:1009900040F804CDFFF7F3BF121D5CBF51F8043DD2
:1009A00040F8043DAFF30080D20724BF11F8013DA9
:1009B00011F801CD48BF11F8012C24BF00F8013D0A
:1009C00000F801CD48BF00F8012C704710B5203A5F
:1009D000C0F00B80B1E81850A0E81850B1E81850EA
:1009E000A0E81850203ABFF4F5AF5FEA027C24BFBC
:1009F000B1E81850A0E8185044BF18C918C0BDE8A5
:100A000010405FEA827C24BF51F8043B40F8043B6D
:100A100008BF7047D20728BF31F8023B48BF11F822
:100A2000012B28BF20F8023B48BF00F8012B70477C
:100A300002F0FF0343EA032242EA024200F00AB84E
:100A400002F0FF0343EA032242EA024200F024B824
:100A50004FF000020429C0F0128010F0030C00F0E7
:100A60001B80CCF1040CBCF1020F18BF00F8012B65
:100A7000A8BF20F8022BA1EB0C0100F00DB85FEA33
:100A8000C17C24BF00F8012B00F8012B48BF00F8FF
:100A9000012B70474FF0000200B51346944696466E
:100AA000203922BFA0E80C50A0E80C50B1F1200181
:100AB000BFF4F7AF090728BFA0E80C5048BF0CC02F
:100AC0005DF804EB890028BF40F8042B08BF70478D
:100AD00048BF20F8022B11F0804F18BF00F8012BFF
:100AE000704700000000000030B44FF0013C50F8A7
:100AF000042BCCFA52F451F8043BD51A20D1FCB99E
:100B000050F8042BCCFA52F451F8043BD51A17D103
:100B1000B4B950F8042BCCFA52F451F8043BD51A6E
:100B20000ED16CB950F8042BCCFA52F451F8043BB6
:100B3000D51A05D1002CDAD030BC4FF00000704738
:100B400029BAB1FA81F111F01801D1F120008440E5
:100B5000F2D1CA40CB4012F0FF0213F0FF0330BCC9
:100B6000D01A704770477047704770472DE9F047BB
:100B70000D4699469246044600F12408016888060D
:100B800004D5E06921F01001216000E00120A842B5
:100B900001DD471B00E00027A1697A1902EB09007B
:100BA000081AA0612078C00602D42046FFF7C6FCD0
:100BB000002608E0D4E901211AF806009047206ACF
:100BC000401C761C20624E45F4DB2078C0060AD516
:100BD0002046FFF7B3FC06E0D4E90121302090471E
:100BE000206A401C2062381EA7F10107F4DC07E0F0
:100BF000D4E9012118F805009047206A401C2062C2
:100C0000281EA5F10105F3DC2046FFF7ADFC207896
:100C1000000602D50220BDE8F0870120FBE72DE9A0
:100C2000FF4F0C461E464FF0FF378BB0D2E9000154
:100C3000DDF860800A908A46C1F30A5505B93D4641
:100C4000002108464FF00000BAF1000F00F4400008
:100C500005DA00EB80004FF4400101EA50004FEA52
:100C60009059B9F1010F00DDB9460A9850EA4A00DF
:100C70000ED044F61050A5F2FF3545432F14B8F1BD
:100C8000000F1ED07542291E1EDDC9F100021CE0B6
:100C9000B8F1010F4FF0000001D0302103E0F24322
:100CA00005E02154401CB042FBDB3046002200210D
:100CB00021540B99C1F80880C1E900200FB0BDE8AC
:100CC000F08FBD1B6D1CDEE74A4600DA694206A8BC
:100CD00000F0D6FA06AB93E8070003AB83E8070001
:100CE00050460A9956F05FFF8DE80700A0F50050C6
:100CF0001F3800900398002D0ADD42F21F014A467A
:100D00000844002303A90390684657F0C9F909E095
:100D1000A0F500504A461F38002303A903906846F7
:100D200057F0D3F98DE807000004000C03D04FF012
:100D3000FF30410800E01046B8F1000F03D0002258
:100D4000009215461EE0751E05D400F013FA3032ED
:100D500062556D1EF9D5B3460122084302D0002228
:100D60007F1C04E02078302801D100227F1E002A59
:100D7000099784D01DE0112D07DA00F0FBF930321D
:100D800062556D1C50EA0102F5D1084302D000986B
:100D9000C8B10EE00021681E05E0235C625C63546C
:100DA0002254401E491C8142F7DBAB46A81B401E63
:100DB0000990002004F80B000B98099AC0F80880ED
:100DC000C0E9002B7AE711264FF0000857E72DE91C
:100DD000F04F88460446D21D22F0070191B0D1E9B8
:100DE0000001CDE90A0157F0A7FA02460B98C00F9F
:100DF00001D02D2007E02068810701D52B2002E0DB
:100E0000202101EAC000032A099001D0072A05DB4E
:100E100003464146204600F0F3F90BE120788006B6
:100E200001D5E06900E00620B8F1650F814606D0E3
:100E3000B8F1660F18D0B8F1670F70D131E000201B
:100E4000B9F1110F009001DB112301E009F1010359
:100E50000AAA01A90CA8FFF7E2FEDDE90C70002642
:100E600009F10105834647E001204B4600904FF011
:100E700000470AAA01A90CA8FFF7D1FEDDE90DB0D1
:100E80000C995D46002610B909F101000D18B9EB67
:100E9000050003D4C0F1FF3609F10105A5EB0900F7
:100EA0002BE0B9F1010F01DA4FF001090020B9F18F
:100EB000110F0090484601DD112300E003460AAA05
:100EC00001A90CA8FFF7ABFEDDE90C704D4600262A
:100ED0008346207800070AD4AB4500DA5D4601A8B6
:100EE000012D04DD411911F8011C302907D04F45AF
:100EF00002DA17F1040F04DA012082460FE06D1EBA
:100F0000EEE7002F02DCED1B3E4403E0781CA84214
:100F100000DD7D1CB81B00F1010A4FF0004720786E
:100F2000000703D4AA4501DB4FF0FF3A0021B7F1D7
:100F3000004F0DF143088DF8431024D002202B23DD
:100F4000002F01DA7F422D230A21021EA0F10100A9
:100F500000DC5FB197FBF1FC97FBF1F201FB1C7C1D
:100F600017460CF1300C08F801CDEEE7A8F10100AE
:100F700003702188090501D5452100E06521A0F114
:100F8000010800F8011C09980FA9A1EB0807FF1D33
:100F900000B10120411901EBEA70A1693844081A37
:100FA000401EA0612078C00602D42046FFF7C6FA92
:100FB000099828B1D4E901219047206A401C206299
:100FC0002078C00622D52046FFF7B8FA1EE0002E92
:100FD00004DBB34502DD01A8805D00E03020D4E9E8
:100FE00001219047206A401C2062761CAAF1010072
:100FF0005FEA000A0AD100F0B9F8C0680168405CF5
:10100000D4E901219047206A401C2062281EA5F1E6
:101010000105DCDC07E0D4E9012118F8010B904759
:10102000206A401C2062381EA7F10107F3DC20462D
:10103000FFF79AFA032011B041E6000001694A1C4B
:1010400002610878704700B58FB0CDE90131002109
:10105000059105497944CDE9031011466846FFF72B
:10106000F9FA0FB000BD0000E5FFFFFF0A6802F8C3
:10107000010B0A60704710B5436913B1AFF30080EC
:1010800001E0FFF782FA012010BD127800F124017F
:101090000A7000224A700122EDE711684FF0FF321A
:1010A000E9E70000074B70B50D467B44FFF7CBFF27
:1010B0000446284600F056F910B14FF0FF3070BDDD
:1010C000204670BDC300020010B5002000F04EF9AC
:1010D000FFF769F9BDE81040012015F011BE10B509
:1010E000044602E0641C15F00FFE20780028F9D1B8
:1010F00010BD431A28BF9A427FF668AC10441144D1
:1011000010F0030F1EBF11F8013D521E00F8013D03
:1011100010F0030F7FF4F6AF103AC0F00A8010B55C
:1011200031E9185020E91850103ABFF4F9AFBDE882
:101130001040530724BF31E9081020E9081044BFCC
:1011400051F8043D40F8043D12F0030F08BF70470A
:10115000D20728BF31F8023D48BF11F8012C28BF43
:1011600020F8023D48BF00F8012C70470048704746
:10117000E003002030B5B0F10A0271F100034FEA3C
:10118000900E4EEA817EB0EB0E0061EB91014FEACA
:10119000101E4EEA017E10EB0E0041EB11114FEADA
:1011A000102E4EEA016E10EB0E0041EB11214FEABA
:1011B000104E4EEA014E10EB0E0041EB114140186B
:1011C00041F100014FEAD00040EA41704FEAD101FD
:1011D0004FEA810444EA907410EB800544EB01046B
:1011E0006D1944EB0404521BA3414FF0000348BFA8
:1011F0000A3200D530BD401C41F1000130BD000075
:101200002DE9F0411F46044603260168072A01F430
:10121000006004DB08B116A505E016A503E008B1DF
:1012200015A500E015A521F010002060A069C01EE2
:10123000A0610FB1401EA0612046FFF77FF94FB1BA
:10124000D4E9012138469047206A401C2062C01C26
:10125000206206E0206AFAE7D4E9012115F8010BC3
:101260009047761EF8D22046FFF77EF9BDE8F08160
:101270004E414E006E616E00494E4600696E66003A
:101280002DE9F047814616468AB0354878440DC8A6
:101290008DE80D0032487844801C03AC0DC884E80A
:1012A0000D0041F69B300844372190FBF1F290FB92
:1012B000F1F5A5F1800501FB12041B3C02D5644247
:1012C000012000E00020DFF898A080460027FA44C3
:1012D000AAF1BE0A0EE0E0070AD03246684607EBE4
:1012E000470101230AEB810156F0EFFE8DE807006C
:1012F00064107F1C002CEED1194F7F44AE3F19E0E3
:10130000E80715D007EB04100DF1180A90E80E005D
:101310008AE80E00C068F04201D198190890324660
:10132000012306A903A856F0D0FE03AB83E807000B
:101330006D10641C002DE3D14FF001033246694665
:10134000B8F1000F03A802D056F0AAFE01E056F053
:10135000BCFEC9E90001C9F808200AB0BDE8F08761
:10136000C0710500007B00F08000704710B500F0F0
:101370003DF8BDE8104000F033B800000048704769
:10138000C00300207546FFF7F9FFAE460500694629
:10139000534620F00700854618B020B5FFF722F825
:1013A000BDE820404FF000064FF000074FF0000866
:1013B0004FF0000BAC46ACE8C009ACE8C009ACE8A3
:1013C000C009ACE8C00921F007018D46704710B58F
:1013D0000446AFF300802046BDE81040FEF7EEBFA4
:1013E000002801D015F08CBC7047000010B500211A
:1013F00002A000F013F8012010BD0000534947413E
:101400004252543A2041626E6F726D616C20746575
:10141000726D696E6174696F6E00000070B505468B
:101420000C460A2000E06D1C15F06EFC35B12878E2
:101430000028F8D102E0641C15F066FC14B1207895
:101440000028F8D1BDE870400A2015F05DBC00000E
:1014500010B50446043000F04FF900281CBF0120ED
:1014600010BD94ED010A94ED022AB8EE400B002164
:101470009FED211BB8EE422B002220EE010B002332
:1014800000209FED213B9FED1E1B22EE032B20EE43
:10149000010B9FED1F3B02EE013B9FED1F2AB7EEB4
:1014A000C00B84ED030AB7EEC31BB5EE400AF1EEA4
:1014B00010FAB4EE420A9FED190AB8BF0121F1EE0D
:1014C00010FAC8BF0122B4EE401A9FED150AF1EEE2
:1014D00010FAB8BF0123B4EE401AF1EE10FA41EA57
:1014E0000301C8BF0120114384ED041A0843607052
:1014F00010BD00BF00BF00BF000000000000594049
:10150000000000000000B03E000000000000694044
:1015100000000000000049C000401C4600007AC5E1
:1015200000D0044600000000F0B583B0282000F091
:10153000FBFE41F6BC600DF10902C2F20000702111
:10154000012300248DF809404FF6FF76009601F044
:101550009BF89DF80900000700F1C880012000F009
:10156000E3FE41F6BC650DF10A02C2F200057021EE
:1015700001232846BE278DF80A70009601F080F9F5
:10158000282000F0D1FE0DF1090270210123284628
:101590008DF80940009601F077F89DF809000007E2
:1015A00000F1A480012000F0BFFE41F6BC650DF102
:1015B0000A02C2F200057021012328468DF80A7044
:1015C0004FF6FF76009601F05BF9282000F0ACFEA4
:1015D0000DF1090270210123284600248DF80940ED
:1015E000009601F051F89DF8090000077ED441F6FD
:1015F000BC65BA20C2F200058DF80B000DF10B029C
:10160000702101232846009601F03AF9142000F0D9
:101610008BFE282000F088FE0DF1090270210123C5
:1016200028468DF80940009601F02EF89DF8090033
:1016300000075BD4012000F077FE41F6BC650DF198
:101640000A02C2F20005702101232846BE278DF848
:101650000A704FF6FF76009601F012F9282000F08C
:1016600063FE0DF1090270210123284600248DF844
:101670000940009601F008F89DF80900000735D4EC
:10168000012000F051FE41F6BC650DF10A02C2F2E4
:1016900000057021012328468DF80A70009601F09C
:1016A000EFF8282000F040FE0DF10902702101231F
:1016B00028468DF80940009600F0E6FF9DF80900E5
:1016C000000713D4BA208DF80B0041F6BC600DF171
:1016D0000B02C2F20000702101234FF6FF77009742
:1016E000012401F0CDF8142000F01EFE204603B0C6
:1016F000F0BD000000000000F0B583B041F6BC650D
:1017000040F26002C2F200050446C2F200027021FB
:10171000032328464FF6FF76009601F0B1F84B20E0
:1017200000F002FE0DF10B02702101232846002774
:101730008DF80B70009600F0A7FF9DF90B00B0F13B
:10174000FF3F40DC4B2000F0EFFD41F6BC600DF1A7
:101750000B02C2F20000702101238DF80B7000967D
:1017600000F092FF9DF90B00B0F1FF3F2BDC4B2006
:1017700000F0DAFD41F6BC600DF10B02C2F2000090
:101780007021012300258DF80B504FF6FF7700974D
:1017900000F07AFF9DF90B00B0F1FF3F13DC4B2006
:1017A00000F0C2FD41F6BC600DF10B02C2F2000078
:1017B000702101238DF80B50009700F065FF9DF913
:1017C0000B00002828D4052000F0AEFD41F6BC60D7
:1017D0000DF10502C2F2000070210623009600F010
:1017E00053FF9DF806009DF809309DF807109DF8FD
:1017F0000A709DF80820090241EA00404FF4702168
:1018000001EA0241104441EA032100093944C4E9D4
:101810000001002003B0F0BD012003B0F0BD0000C6
:1018200070B584B041F6BC640DF10F00C2F2000443
:101830000090EF21F9220123204601250195FF2682
:10184000029601F01DF99DF80F00EF21F822012307
:1018500040F00F008DF80F000DF10E000296CDE95B
:101860000005204601F00CF90DF10D00EF21CDE946
:101870000005F72201232046029601F001F9B6EE99
:10188000001B40F2F870C2F200009FED4F2B90ED6C
:10189000000AB0F91610B8EEC00B00EE012B00EEF6
:1018A000101AB0F914109FED4A1B03EE101A418A6A
:1018B000B8EEC00BB8EEC33B22EE000B22EE000BDD
:1018C00020EE010BA3EE020BB7EE003B20EE010B66
:1018D0009FED411B00EE013B00EE101AB8EE400BED
:1018E00023EE000BB5EE400BF1EE10FA04D19FEDA4
:1018F0003C0B04B070BD00BFB0F91C10B0F91A2049
:1019000022EE023B9DF80F3004EE101A05EE102A6D
:101910009DF80D109DF80E20B8EEC44BB8EEC55BD7
:10192000120142EA0131B0F9182023EE043B1943B9
:1019300022EE052B23EE013BB0EE004BA2EE043B62
:10194000BDEE002B9FED284B23EE022B03EE102A59
:10195000B8EEC33BA3EE042B03EE101AB0F922102D
:101960009FED234BB8EEC33B34EE433B9FED224B40
:1019700002EE043B9FED222B23EE022B9FED223B38
:1019800082EE000B02EE101AB0F92010B0F91E0022
:1019900004EE101AB8EEC22BB8EEC44B20EE022BA8
:1019A00020EE022B22EE032B20EE043B03EE012B54
:1019B00001EE100AB8EEC11B32EE011B9FED142B95
:1019C00001EE020B04B070BD000000000040EFC04B
:1019D000000000000000C03E000000000000003FCA
:1019E0000000000000000000000000000000F0C047
:1019F0000000000000003041000000000000303F07
:101A000000000000006AB840000000000000003E36
:101A1000000000000000B03F70B584B041F6BC6427
:101A20000DF10F00C2F200040090EF21FC2201230F
:101A3000204601250195FF26029601F021F89DF828
:101A40000F00EF21FB22012340F00F008DF80F0063
:101A50000DF10E000296CDE90005204601F010F8C8
:101A60000DF10D00EF21CDE90005FA2201232046FA
:101A7000029601F005F840F2F8749DF80D10C2F2DC
:101A800000049FED251BA0899FED272B00EE100A77
:101A90009DF80E009FED263B0001B8EE400B40EA9A
:101AA00001309DF80F1020EE011B0843B4F90E1011
:101AB00020EE020B02EE100AB4F9100004EE100A38
:101AC000B8EEC22BB8EEC44B02EE030B9FED143BF5
:101AD00020EE000B02EE031B02EE101A20EE040BA8
:101AE000B8EEC22B01EE020B9FED131B80EE011B23
:101AF000BDEEC00B84ED000AB7EEC11B84ED011AE8
:101B0000FFF78EFE9FED0E1B80EE010BB7EEC00BB4
:101B100084ED020A04B070BD00000000000050BF58
:101B2000000000000000103F00000000000020BF87
:101B3000000000000000E03E000000000000B44093
:101B40000000000000408F4000281CBF6FF0010023
:101B5000704780B541F6D470C2F2000004F094F9E9
:101B6000002818BF6FF0030080BD000000000000D7
:101B700080B5C0EB401041F6D471C2F2000101EB18
:101B8000800004F095F9043818BF012080BD0000E2
:101B900000281CBF6FF00100704770B586B044F29A
:101BA000E04640F60004C5F60206C5F6020401ADA3
:101BB00056F80C0C294640F4803046F80C0C56F8C8
:101BC0000C0C00F4803001900198306840F0040063
:101BD0003060306800F0040001900198306840F0F7
:101BE00008003060306800F0080001900198022081
:101BF000029001200390032004900C2005904FF4E4
:101C0000F8500190204600F0A3FB0420019004F559
:101C10008060294600F09CFB56F8640C0E2140F4CD
:101C2000803046F8640C56F8640C002220F48030B2
:101C300046F8640C312001F0ABFC312001F094FC3B
:101C400041F6D470C2F2000006F0A6FD20B16FF09C
:101C5000030006B070BD00BF41F6D4704FF4804160
:101C6000C2F2000003F074FF20B16FF0030006B071
:101C700070BD00BF41F6D4700221C2F2000003F033
:101C8000FBFE002006B070BD00281CBF6FF00100F5
:101C9000704780B582B0642003FB00FC41F6D4702D
:101CA000C2F20000CDF800C004F042FD002818BFC9
:101CB0006FF0030002B080BD70470000000000001C
:101CC00000281CBF6FF00100704780B582B064200F
:101CD00003FB00FC41F6D470C2F20000CDF800C056
:101CE00004F04AFE002818BF6FF0030002B080BD68
:101CF000704700000000000070B586B044F2E0407C
:101D00000025C5F602000595CDE90355CDE901553D
:101D1000016841F6004441F0800101600068C5F6A9
:101D2000020400F08000009000984FF4005100225F
:101D300020464FF4005600F0EFFB012001A9CDE949
:101D4000020520460196049500F002FB06B070BD26
:101D500080B586B000200590CDE90300CDE90100F3
:101D600044F2E040C5F60200016841F080010160E4
:101D7000006801A900F08000009000984FF4807086
:101D8000019041F60040C5F6020000F0E1FA06B00D
:101D900080BD0000000000002DE9F04385B00DF18A
:101DA0001100009041F6BC60EF21C2F20000D02289
:101DB000012301240194FF26029600F061FE9DF8A4
:101DC0001100582840F0628141F6BC65EF21C2F253
:101DD00000058822012328460DF110080296CDE95E
:101DE000008400F04DFEEF218922012328460DF1E9
:101DF0000F090296CDE9009400F042FE9DF80F0015
:101E000040F2F8779DF81010C2F200078A220123F1
:101E100041EA0020B881EF212846CDE900840296EE
:101E200000F02EFEEF218B2201232846CDE90094FD
:101E3000029600F025FE9DF80F009DF810108C22F0
:101E40000123CDE9008441EA0020F881EF212846F2
:101E5000029600F015FEEF218D2201232846CDE9E0
:101E60000094029600F00CFE9DF80F009DF81010F3
:101E70008E220123CDE9008441EA00203882EF213F
:101E80002846029600F0FCFDEF218F220123284610
:101E9000CDE90094029600F0F3FD9DF80F009DF847
:101EA000101090220123CDE9008441EA00207882BD
:101EB000EF212846029600F0E3FDEF219122012355
:101EC0002846CDE90094029600F0DAFD9DF80F0057
:101ED0009DF8101092220123CDE9008441EA0020F0
:101EE000B882EF212846029600F0CAFDEF21932226
:101EF00001232846CDE90094029600F0C1FD9DF82B
:101F00000F009DF8101094220123CDE9008441EACE
:101F10000020F882EF212846029600F0B1FDEF2163
:101F2000952201232846CDE90094029600F0A8FDF1
:101F30009DF80F009DF8101096220123CDE9008432
:101F400041EA00203883EF212846029600F098FDF0
:101F5000EF21972201232846CDE90094029600F054
:101F60008FFD9DF80F009DF8101098220123CDE9F8
:101F7000008441EA00207883EF212846029600F091
:101F80007FFDEF21992201232846CDE90094029696
:101F900000F076FD9DF80F009DF810109A220123A5
:101FA000CDE9008441EA0020B883EF21284602965B
:101FB00000F066FDEF219B2201232846CDE9009425
:101FC000029600F05DFD9DF80F009DF810109C2218
:101FD0000123CDE9008441EA0020F883EF2128465F
:101FE000029600F04DFDEF219D2201232846CDE908
:101FF0000094029600F044FD9DF80F009DF810102B
:102000009E220123CDE9008441EA00203884EF219B
:102010002846029600F034FDEF219F220123284636
:10202000CDE90094029600F02BFD9DF80F009DF87D
:102030001010E0220123029641EA0020788440F249
:102040006300EE21C2F20000CDE90004284600F052
:1020500033FE2F208DF812000DF11200EE21CDE994
:102060000004F42201232846029600F025FE1020E9
:102070008DF813000DF11300EE21CDE90004F522D7
:1020800001232846029600F017FE0024204605B0E2
:10209000BDE8F08300000000FEE700000000000043
:1020A0007047000000000000EFF3108072B600BF20
:1020B000FEE700000000000041F6E023C2F200034A
:1020C0009A7B012A1CD880B593F80EC08646002062
:1020D00003F80C009A7B03EB8202C2F804E09A7BBF
:1020E0001A44107393F80EC00CF101029A730CF1AC
:1020F00030020A7042F63A72A1F80120C87080BD21
:1021000001207047000000000A68002A02681FD002
:1021100022F4F842D1E9073C1A434B6A42EA0C0226
:102120001A430260426847F6FF739A43D1E9013CC3
:102130001A43CB6842EA0C02D1F810C01A434B692B
:1021400042EA0C0289691A4311434160002070473A
:1021500047F6FF739A43D1E9013C1A43CB6842EA40
:102160000C02D1F810C01A434B6942EA0C02D1F8B4
:1021700018C01A43CB6942EA0C02D1F820C01A43B6
:10218000496A42EA0C0211430160002070470000D6
:102190000246406943F6FE7320EA0303002043EA47
:1021A000410151617047000010B5024600696FF3AC
:1021B00015006FF01F04D1E900ECD1E9023140EACB
:1021C0000E0004EB431340EA0C000343002043EAF3
:1021D0004121116110BD00002DE9F041002A826803
:1021E00036D040F6FF734FF20006CFF60F73CFF6EE
:1021F000FF761A40CB684F696FF00F0406EB03338C
:102200000026CFF6F0761A4306EB07573A43826072
:10221000C2688E68D1E9003702F07042013B04EBDE
:1022200007176FF0FF040D6904EB062600241A431C
:10223000CFF6FF7489693A4304EB0545013932430F
:102240002A4342EA0161C1600020BDE8F08100BF7D
:1022500001F1080602F0704CD1E900E278CE6FF08F
:102260000F074FF2000807EB02126FF0FF0707EBB2
:102270000323AEF1010747EA0C07CFF6FF7840F2DF
:10228000000E3A4308EB0434CFF6FF7E00271A43D2
:1022900089690EEB0545CFF6F077224307EB06532D
:1022A00001392A431A4342EA016181600020BDE8F6
:1022B000F08100000000000070B515460C4606468F
:1022C0000CF042F80CF040F8BA2010F001FE0128A2
:1022D00007D1300A10F0FCFD012802D1F0B210F055
:1022E000F7FD0CF031F8BB2010F0F2FD012815D1FC
:1022F00064B1013D644200BFB4F1FF3018BF01205A
:102300000BF00AF9013405F8010FF5D30DF06CFA62
:1023100000240DF069FA204670BD00BF01240DF0C5
:1023200063FA204670BD0000B0B5044600F004F921
:1023300040F200010546C2F20001621C097818BF94
:102340000C4400BF00F0F8F8401BA042FAD3B0BD27
:102350002DE9F04F83B00F68002F00F0C98000F125
:10236000264642F2004506F1FF76C5F602050A222E
:10237000A8424FEAB62540F2040C08BF092200F13A
:1023800020030093092DC5F6000C38BF4FEAB62292
:10239000002400264FF0000801920AE008F101082D
:1023A0000F6837FA08F206F1020604F1040400F09F
:1023B0009F80012202FA08FE17EA0E09EED0D1F83A
:1023C00004B003220BF00307B2407D1E6FEA020A3D
:1023D000012D11D88268CD6802EA0A02B5402A436D
:1023E0008260CBF30015426822EA0E0205FA08F576
:1023F0002A43426004E000BF032F01D103271FE0FE
:10240000C2688D6802EA0A02B540022F42EA05025C
:10241000C26015D16FF0030204F01C0502EA580BEC
:10242000009A0F2352F80BE0AB400F692EEA03032A
:10243000AF403B4342F80B30D1F804B00BF0030738
:10244000026807FA06F302EA0A021BF4403F42EA76
:1024500003020260A2D044F2F44340F2084EC5F6F3
:102460000203C5F6000E0F251A6842F002021A6038
:102470001A6802F00202029228F00302029B04F0A2
:102480000C0352F80E709D40AF43019D05FA03F313
:102490003B4342F80E304FF0B04EDEF800204B6860
:1024A00042EA0907DD0258BF22EA09079D02CEF879
:1024B0000070DCF8002042EA090758BF22EA090749
:1024C0009D03CCF80070DCF8802042EA090758BF71
:1024D00022EA0907DB03CCF88070DCF87C2042EAB2
:1024E000090758BF22EA0907CCF87C7056E700BFFD
:1024F00003B0BDE8F08F00000069084018BF01205C
:102500007047000000000000426902EA01039143A5
:1025100041EA034181617047002A08BF09048161D3
:10252000704700000000000041F20000C5F60040C6
:102530000068000C7047000042F2A070C2F2000078
:10254000006870470000000090F84120202A03D165
:1025500090F84020012A01D102207047242280F8FF
:1025600041200268136823F001031360136823F409
:1025700080531360136819431160116841F0010121
:102580001160202180F84110002180F840100020C7
:10259000704700000000000090F84120202A03D17D
:1025A00090F84020012A01D102207047242280F8AF
:1025B00041200268136823F001031360136823F4B9
:1025C000706343EA01211160116841F0010111605B
:1025D000202180F84110002180F840100020704731
:1025E00010B310B590F8411031B9002180F84010B7
:1025F000044600F065FC2046242180F8411090E854
:102600001210C3680A68012B22F001020A6024F04C
:1026100070620A618A6822F400428A6006D14CF432
:1026200000428A600AE000BF01207047022B4CF490
:1026300004428A6002D14FF400624A604A6800F1A5
:10264000100C42F0007242F400424A60CA6822F460
:102650000042CA609CE81C101A4342EA0422CA6085
:10266000026A42EA0C020A600A6842F001020A6049
:1026700000214164202280F84120016380F842104B
:10268000002010BD000000002DE9F04F81B004468D
:1026900090F84100202803D194F84000012803D18C
:1026A000022001B0BDE8F08F8A4617469846012007
:1026B00084F84000FFF740FF216805468A6912044C
:1026C0000AD500BFFFF738FF401B192800F2C88069
:1026D000216888690004F5D46FF39F2A222084F8CA
:1026E0004100102084F84200002060646762A4F872
:1026F0002A8040F20008606349F60000628DCFF640
:102700000040C0F2FF18B2F5807F09D351F8042FC2
:1027100008F5105702EA0003FF2256460AE000BF00
:10272000628D51F8047F07EA000608F59237D3B2AC
:102730004AEA034333433B430B6022850A9F618D82
:1027400000295DD007F10109FF2600F5806B11E03B
:10275000618D2185C9B250F8042F02EA0B0242EACA
:1027600001414FF0007241EA0A0111430160608D9E
:10277000002845D0204639462A4605F055FC002859
:102780005AD12068616A406A0870218D606A013000
:102790006062481E2085618D01396185618D002947
:1027A000E5D00004E3D12068816909060ED4B9F1AF
:1027B000000F17D0002F51D0FFF7BEFE401BB842CC
:1027C0004ED8206881690906F6D500BF618DB1F544
:1027D000807FBDD32685424650F8041F01EA0B01D5
:1027E000C1E700BF81690906F0D4816909065CBFB1
:1027F00081695FEA0161E9D481690906F2D5E5E7FB
:1028000087B100BF20688169890619D420463946FE
:102810002A4605F085FA78B9FFF78EFE401BB842CC
:10282000F0D91DE020688169890609D4002120467D
:102830002A4605F075FA88B1012001B0BDE8F08F95
:102840002021C1614EF600034268CFF600631A40B2
:102850004260002084F841100AE000BFFFF76CFEE0
:10286000606C40F020006064202084F8410001206A
:10287000002184F8421084F8401001B0BDE8F08FC8
:102880002DE9F04F81B0044690F84100202803D193
:1028900094F84000012803D1022001B0BDE8F08F78
:1028A0008A4617469846012084F84000FFF744FE08
:1028B000216805468A6912040AD500BFFFF73CFE6D
:1028C000401B192800F2CA80216888690004F5D4E9
:1028D000212084F84100102084F842000020606428
:1028E000676249F6000CA4F82A8040F20008606391
:1028F000CFF6004C608DC0F2FF186FF39F2AB0F541
:10290000807F09D30B46FF22564653F8040F00EA96
:102910000C0708F500500AE0628D0B46D0B24AEA77
:10292000004753F8040F00EA0C0608F590303743CF
:102930003843186022850A9F608D00285ED007F119
:102940000109FF260CF5806B13E000BF608D208528
:10295000C2B2084650F8043F03EA0B0343EA0242BE
:102960004FF0007342EA0A021A430260608D0028A9
:1029700044D0204639462A4605F0EAFB002858D1C3
:10298000606A216810F8012B8A626062608D0138EC
:102990006085208D01382085628D002AE6D00004F4
:1029A000E4D1886900060FD4B9F1000F18D0002FC8
:1029B00052D000BFFFF7C0FD401BB8424ED821687F
:1029C00088690006F6D500BF608DB0F5807FBDD365
:1029D00008462685434650F8042F02EA0B02C1E759
:1029E00088690006F0D4886900065CBF88695FEAE0
:1029F0000060E9D488690006F2D5E5E787B100BF39
:102A000021688869800619D4204639462A4605F08F
:102A100087F970B9FFF790FD401BB842F0D91DE06F
:102A2000886980060AD4002120462A4605F078F9F4
:102A300090B1012001B0BDE8F08F00BF2020C86137
:102A40004EF600034A68CFF600631A404A6084F8E5
:102A5000410000200AE000BFFFF76EFD606C40F00F
:102A600020006064202084F841000120002184F8C7
:102A7000421084F8401001B0BDE8F08F0000000063
:102A80002DE9F04F83B0044690F84100202807D18B
:102A90000C9F4FB10D9D3DB194F8400001280BD122
:102AA000022003B0BDE8F08F4FF400706064012095
:102AB00003B0BDE8F08F00BF8B46924699460120D7
:102AC00084F84000FFF738FD21680646896909044B
:102AD0000AD500BFFFF730FD801B192800F2DC800B
:102AE000206880690004F5D4222084F84100402049
:102AF00084F842002046594652464B464FF00008A3
:102B0000C4F84480676265850E9DC4F83480CDE9C1
:102B1000005605F0B1F928B184F84080012003B0D7
:102B2000BDE8F08F618D49F6000040F20009CFF654
:102B30000040C0F2FF19B1F5807F6FF39F2B0BD3DC
:102B400021684A68024042EA0B024A4402F51052E8
:102B50004A60FF210DE000BF618D2268CBB257684B
:102B6000074047EA034309F5923743EA0B033B4327
:102B700053606F1C4FF0FF0A00F58068218511E05B
:102B8000618D2185C9B250F8042F02EA080242EA99
:102B900001414FF0007241EA0B0111430160608D69
:102BA00000285BD02068816949070CD4D7B3002D79
:102BB00070D000BFFFF7C0FC801BA8426CD8206813
:102BC00081694907F6D5406A616A0870218D606A9B
:102BD00001306062481E2085618D01396185618DFB
:102BE0000029DCD00004DAD12068816909060CD400
:102BF00037B3002D4ED000BFFFF79EFC801BA842CC
:102C00004AD8206881690906F6D5618DB1F5807FC3
:102C1000B6D3A4F828A04A4650F8041F01EA0801D8
:102C2000B9E700BF81694907CDD4816949075CBF15
:102C300081695FEA4171C6D481694907F2D5C2E76B
:102C400081690906E1D4816909065CBF81695FEA8F
:102C50000161DAD481690906F2D5D6E72046294612
:102C6000324605F041FA00287FF421AF2068202188
:102C70004EF60003C161CFF6006342681A4042601D
:102C800084F84110002084F8420084F8400003B02A
:102C9000BDE8F08FFFF750FC606C40F020006064EE
:102CA000202084F84100002084F8420084F840008D
:102CB000012003B0BDE8F08F2DE9F04F83B004464A
:102CC00090F84100202807D10C9F4FB10D9D3DB1D8
:102CD00094F8400001280BD1022003B0BDE8F08F2A
:102CE0004FF400706064012003B0BDE8F08F00BFB6
:102CF0008B4692469946012084F84000FFF71CFC61
:102D000021680646896909040AD500BFFFF714FC4B
:102D1000801B192800F2C480206880690004F5D463
:102D2000212084F84100402084F842002046594682
:102D300052464B464FF00008C4F8448067626585F0
:102D40000E9DC4F83480CDE9005605F001F928B194
:102D500084F84080012003B0BDE8F08F608D49F613
:102D6000004A40F20009CFF6004AB0F5807FC0F279
:102D7000FF190DD36FF39F2B2068416801EA0A0108
:102D800041EA0B0141EA09014160FF200FE000BF69
:102D90006FF39F2B608D2168C2B24B6803EA0A0370
:102DA00043EA024242EA0B0242F000724A606F1CA0
:102DB0004FF0FF08208511E0618D2185C9B250F8E0
:102DC000042F02EA0A0242EA01414FF0007241EA8E
:102DD0000B0111430160608D002843D02046294635
:102DE000324605F0B5F900287FF47DAF616A2068AE
:102DF00011F8012B82626162618D01396185218D3B
:102E000001392185628D002AE5D00904E3D1816969
:102E100009060CD4C7B1002D40D000BFFFF78CFBD2
:102E2000801BA8423CD8206881690906F6D5618DCF
:102E3000B1F5807FC0D3A4F828804A4650F8041F1B
:102E400001EA0A01C3E700BF81690906EFD481697D
:102E500009065CBF81695FEA0161E8D481690906FE
:102E6000F2D5E4E720462946324605F03DF9002830
:102E70007FF439AF206820214EF60003C161CFF600
:102E8000006342681A40426084F84110002084F8D0
:102E9000420084F8400003B0BDE8F08FFFF74CFB20
:102EA000606C40F020006064202084F84100002025
:102EB00084F8420084F84000012003B0BDE8F08FA0
:102EC00010B5B6B0044602A800213191CDE9341105
:102ED000CDE932110430B821FDF7DCFD45F20041A7
:102EE0002068C4F20001884202D036B010BD00BF95
:102EF0000820029002A800F02BFF08B1FFF7D4F8D9
:102F000044F2E04431A9C5F60204206840F0020012
:102F10002060206800F0020001900198C0203190EC
:102F2000122032900020CDE933000420359040F289
:102F30000040C5F60200FFF70BFAA06840F400104D
:102F4000A060A06800F400100190019836B010BD98
:102F500040F2000042F2A071C2F20000C2F2000191
:102F600000780A6810440860704700000000000004
:102F700080B5032000F03CFB01F0CAFE44F218418A
:102F800048F20C53C5F60201C9F205030A68C2F300
:102F900003229A5C096801F00F0102F01F02595CDC
:102FA000D04040F20C02C2F2000201F01F0120FAF0
:102FB00001F1116040F20801C2F2000108600F2027
:102FC00000F00AF800281CBF012080BD00F0BCFA08
:102FD000002080BD00000000B0B540F20005C2F244
:102FE00000052978F1B1044640F20800C2F2000061
:102FF0004FF47A72B2FBF1F10068B0FBF1F003F02C
:10300000DFFD0F2C01464FF001000AD8002918BF40
:10301000B0BD4FF0FF300022214600F0B9FA002089
:103020006C60B0BD0120B0BD90F8A030012B4FF016
:10303000020331D02DE9F04134244FF0010880F82B
:10304000A08080F8A13002FB0403D1E900CED1E9D1
:103050000267D1E90445C3E91245C3E91067C3E932
:103060000ECED1E906CED1E90854D1E90A76C3E9FA
:103070001876C3E91654C3E914CE0F6B9F66044655
:1030800005F0A2F920680023C0F8248084F8A1800C
:1030900084F8A030BDE8F0411846704700000000F9
:1030A000704700000000000070B504460068866BA1
:1030B000456B710716D515F0040113D0416B21F053
:1030C000040141630421C163D4F8A40040F001006D
:1030D000C4F8A40084F8A110002084F8A0002046C1
:1030E000FFF7DEFFB00718D515F0020015D02068F5
:1030F000416B21F0020141630221C163D4F8A400B5
:1031000040F00200C4F8A400042084F8A1000020CC
:1031100084F8A0002046FFF7C3FFF00718BF15F0A2
:10312000010017D1300726D515F0080008BF70BD83
:103130002068416B21F0080141630821C16301202F
:1031400084F8A100002084F8A0002046BDE870406B
:1031500000F0A6B92068416B21F001014163012113
:10316000C16384F8A110002084F8A000204600F07C
:1031700077F83007D8D470BD00286DD010B590F81E
:10318000A11031B9002180F8A010044600F070F8B9
:103190002046022180F8A110D0E9001CD0E90234B9
:1031A0008A6922F070428A6143EA0C020369224371
:1031B0001A438B691A438A614FF600038A68CFF27B
:1031C00000031A408A60D0E9052444EA02428C6870
:1031D00022438A60CA681A40CA60D0E9072444EAD8
:1031E0000242CC682243CA600A691A400A61D0E9E7
:1031F000092444EA02420C6922430A614A691A40DE
:103200004A61D0E90B2343EA02424B691A434A61FF
:1032100090F8352090F83630CC6A04F07F44CC62C8
:103220001B0490F8344043EA0222CB6A22441A433A
:10323000CA624A6B42F006024A638A6942F001029E
:103240008A610021C0F8A410012280F8A120BDE805
:1032500010400846704700BF012070470000000082
:1032600002680021536A43F00103536200F0F8B88A
:103270002DE9F04F87B041F200010068C5F200016E
:10328000002788420697CDE904770397029703D079
:1032900007B0BDE8F08F00BF44F2E04042F20045C5
:1032A000C5F60200C5F60205A5F5806902AE4168C3
:1032B00041F008014160416801F008010191019964
:1032C000016841F480610160016801F4806101914D
:1032D0000199016841F040010160016801F040017D
:1032E00001910199016841F400710160016801F4E4
:1032F000007101910199016841F08001016001684C
:1033000001F0800101910199016841F4807101602F
:10331000016801F4807101910199016841F0800117
:1033200001600068314600F08000019001984FF480
:10333000004002904846CDE90377FFF709F8802066
:10334000029028463146FFF703F84FF48050029070
:1033500028463146FEF7FCFF4FF400414846FFF790
:10336000CBF878B980212846FFF7C6F810B10027BE
:1033700008E000BF4FF480512846FFF7BDF8B0FACF
:1033800080F0470902AEFE20029005F580603146CC
:103390004FF0020ACDF80CA0002404944FF0030B68
:1033A000CDF814B04FF00E08CDF81880FEF7D0FF1E
:1033B0004FF480603146CDE9020A09200690A5F558
:1033C0004060CDE9044BFEF7C3FF4FF2FF303146BA
:1033D000CDE9020A2846CDF81880CDE9044BFEF766
:1033E000B7FFA5F500654FF40040CDE9020A284675
:1033F0003146CDE9044BCDF81880FEF7A9FF4FF414
:1034000070403146CDE9020A4846CDF81880CDE932
:10341000044BFEF79DFF10203146CDE9020A09203A
:1034200006902846CDE9044BFEF792FF402002901B
:1034300001203146CDE9030428460594FEF788FFB4
:10344000402100222846FFF767F8002F3FF420AF05
:1034500004F02AFF07B0BDE8F08F00000000000074
:1034600090F8A020012A4FF0020215D080F8A12088
:103470000268536B23F00103536341F24003C5F22A
:1034800000031960516B41F00101516300220121D9
:1034900080F8A11080F8A0201046704700000000BE
:1034A0007047000000000000B0B502784EF69C5C4A
:1034B000CEF2000C43784CF8043CFAB14368CCF8E7
:1034C0000030037BC17A90F80AE0457B447A42EAF7
:1034D0000372837B42EA0161C27B41EACE41007AFA
:1034E00041EA854141EA434141EA024141EA04217E
:1034F00041EA4000CCF80400B0BD00BF0020CCF889
:103500000000CCF80400B0BD4EF62450CEF200000E
:10351000BFF35F8F016821F48031016000210167F2
:1035200070470000000000004EF6245140F00100FA
:10353000CEF200010867086840F480300860BFF3ED
:103540004F8FBFF36F8F704781B044F2F440C5F6E0
:103550000200016841F002010160006800F0020011
:103560000090009801B07047002848BF704700F0F5
:103570001F01012202FA01F14EF20012C0F34A10BB
:10358000CEF2000242F82010704700000000000058
:1035900070B54EF60C5C4FF0FF36CEF2000C00F129
:1035A000604505F56445DCF80030C3F3022E8EF06B
:1035B0000703042B28BF0423BEF1030406FA03F318
:1035C00021EA030100F00F0338BF0024043B002868
:1035D000634406FA04F048BF03F10C05A14022EA57
:1035E000000008430001287070BD000000000000CA
:1035F0004EF60C514FF6FF03CEF200010A681A4056
:1036000060F30A2242F0806040F0FD70086070476D
:10361000B0B544F60C05C5F60205296849072968C6
:1036200006D401F00701081A18BF0120B0BD00BF81
:1036300021F0070108432860FEF77EFF044600BF23
:1036400055F8080C800407D4FEF776FF001BB0F590
:103650007A7FF5D90120B0BD0020B0BD0000000088
:1036600080B501F0CDFA44F2204148F20C52C5F683
:103670000201C9F205020968C1F30211515C01F0AF
:103680001F01C84080BD000080B544F2304EC5F631
:10369000020E5EF8083C5EF8081CC1F3051C5EF8DB
:1036A000041CBCF1000FDEF8042019D001F0010168
:1036B000494201EAD20103F003026FF35F31022AAB
:1036C00000EE101AB8EE400A14D0012A0ED01AB932
:1036D0005EF8301C890611D49FED361A1CE000BF3D
:1036E00000218160C0E9001180BD00BF9FED2F1A4D
:1036F00012E000BF9FED2E1A0EE000BF5EF8301CF6
:1037000049F20002C0F2D032C1F3C10122FA01F144
:1037100001EE101AB8EE411ADEF800109FED263ABD
:103720006FF35F2102EE101ADEF80010C1F346219C
:10373000B8EE422A00EE032A00EE10CAB7EE003AB5
:10374000B8EE400A81EE000A32EE031A02EE101AB9
:10375000B8EE422A20EE010A32EE031A80EE011A78
:10376000BCEEC11A80ED001ADEF80010C1F306416C
:1037700001EE101AB8EE411A31EE031A80EE011A6A
:10378000BCEEC11A80ED011ADEF80010C1F306612B
:1037900001EE101AB8EE411A31EE031A80EE010A5A
:1037A000BCEEC00A10EE101A816080BD0024744A7D
:1037B00020BCBE4B0024744C000000390000000007
:1037C00080B544F2384EC5F6020E5EF8103C5EF845
:1037D000101C5EF80C2CC1F3053CDEF80410BCF1A3
:1037E000000F15D0C908D20601EAE2716FF35F310C
:1037F00000EE101A03F003010229B8EE400A0DD0C2
:1038000081B95EF8381C890610D49FED361A1BE08A
:1038100000218160C0E9001180BD00BF9FED301A1A
:1038200012E000BF9FED2D1A0EE000BF5EF8381CBD
:1038300049F20002C0F2D032C1F3C10122FA01F113
:1038400001EE101AB8EE411ADEF800109FED263A8C
:103850006FF35F2102EE101ADEF80010C1F346216B
:10386000B8EE422A00EE032A00EE10CAB7EE003A84
:10387000B8EE400A81EE000A32EE031A02EE101A88
:10388000B8EE422A20EE010A32EE031A80EE011A47
:10389000BCEEC11A80ED001ADEF80010C1F306413B
:1038A00001EE101AB8EE411A31EE031A80EE011A39
:1038B000BCEEC11A80ED011ADEF80010C1F30661FA
:1038C00001EE101AB8EE411A31EE031A80EE010A29
:1038D000BCEEC00A10EE101A816080BD0024744A4C
:1038E00020BCBE4B0024744C0000003900000000D6
:1038F00080B544F2404EC5F6020E5EF8183C5EF804
:10390000181C5EF8142CC1F3055CDEF80410BCF141
:10391000000F15D0C908D20501EAE2716FF35F31DB
:1039200000EE101A03F003010229B8EE400A0DD090
:1039300081B95EF8401C890610D49FED361A1BE051
:1039400000218160C0E9001180BD00BF9FED301AE9
:1039500012E000BF9FED2D1A0EE000BF5EF8401C84
:1039600049F20002C0F2D032C1F3C10122FA01F1E2
:1039700001EE101AB8EE411ADEF800109FED263A5B
:103980006FF35F2102EE101ADEF80010C1F346213A
:10399000B8EE422A00EE032A00EE10CAB7EE003A53
:1039A000B8EE400A81EE000A32EE031A02EE101A57
:1039B000B8EE422A20EE010A32EE031A80EE011A16
:1039C000BCEEC11A80ED001ADEF80010C1F306410A
:1039D00001EE101AB8EE411A31EE031A80EE011A08
:1039E000BCEEC11A80ED011ADEF80010C1F30661C9
:1039F00001EE101AB8EE411A31EE031A80EE010AF8
:103A0000BCEEC00A10EE101A816080BD0024744A1A
:103A100020BCBE4B0024744C0000003900000000A4
:103A200010B584B00146B0F5805F4FF0000023DB95
:103A3000B1F5004F5ADB00F0AB80B1F5803F00F0EC
:103A4000CD80B1F5002F40F0198144F20040C5F659
:103A50000200816D01F44031B1F5003F00F01C819E
:103A6000B1F5803F00F00E81002940F00081006830
:103A7000000100F1D280FAE0B1F5806F1CDAB1F5F7
:103A8000807F5DD0B1F5007F40F0F88044F20041C6
:103A9000C5F60201086DC0F38212042A00F2E78025
:103AA00048F20000C0F2BB00DFE812F09600B4005C
:103AB000BE00E800A80000BF56D0B1F5006F40F08E
:103AC000DD8044F20041C5F60201886DC0F3026258
:103AD000042A00F2CC8048F20000C0F2BB00DFE80C
:103AE00012F07B009900A300CD008D00B1F5805F3E
:103AF00000F06080B1F5804F40F0C08044F2004497
:103B0000C5F60204A06DC0F30270052800F2AF8074
:103B1000DFE810F00600EC00DE00E600D400F40060
:103B200001F06EF8216A48F20C52C9F20502C1F3A5
:103B30000211515C01F01F01C84004B010BD00BF6C
:103B400044F20041C5F60201086D00F00702042AA4
:103B500000F28D8048F20000C0F2BB00DFE802F006
:103B60003C5A648E4E0000BF44F20041C5F602018B
:103B7000886DC0F34252042A00F2798048F20000B6
:103B8000C0F2BB00DFE802F02846507A3A0000BFDE
:103B900044F20040C5F60200016D01F04051B1F160
:103BA000005F6DD0B1F1805F5ED000295FD1006809
:103BB000A5E000BF44F20041C5F60201086DC0F364
:103BC0000232042A53D848F20000C0F2BB00DFE8FA
:103BD00002F003212B551500086846E044F200402E
:103BE000C5F60200C16C0068C9033ED500013ED590
:103BF00001A8FFF7E5FD039804B010BDC86C0A6882
:103C0000520700F04052086818D5BAB9C0F3C10095
:103C10004CE000BF0868000129D501A8FFF7D0FDDE
:103C2000019804B010BD00BF086880001FD501A82E
:103C3000FFF75EFE019804B010BD00BFC00502D5BD
:103C4000B2F1805F69D00868B2F1005F00F4003122
:103C50004FF0000004BF47F64000C0F27D1000297D
:103C600008BF084604B010BD0068800102D40020DF
:103C700004B010BD01A8FFF707FD029804B010BD05
:103C8000006834E000688000F1D501A8FFF730FE3D
:103C9000039804B010BD00BFC16C0268520701F068
:103CA0004051026834D599BBC2F3C10049F200010A
:103CB000C0F2D03121FA00F004B010BD206840F607
:103CC0000011C005C0F23D0101EAE07004B010BD72
:103CD00020688000CBD501A8FFF70AFECDE700BF22
:103CE00020684007C3D5206890E700BF2068000126
:103CF000BDD501A8FFF764FDBFE700BF206847F608
:103D000040018003C0F27D1101EAE07004B010BDF3
:103D1000D20509D5B1F1805F06D140F60010C0F29E
:103D20003D0004B010BD00BF0068B1F1005F00F4B9
:103D300000324FF0000004BF47F64000C0F27D1093
:103D4000002A08BF104604B010BD000000000000AB
:103D50002DE9F0470446C07844F22C480007C5F628
:103D600002082DD5606E4FEA305103293ED8DFE8B6
:103D700001F0030B172000BFD8F8001041F4003108
:103D8000C8F8001015E000BF201D022104F0B4FDAA
:103D9000064668B16078C00716D1354653E000BFCB
:103DA00004F12400022104F03BFE06460028F1D174
:103DB000606ED8F8241021F440110843C8F824009C
:103DC00000266078C007E8D0606D042800F2788093
:103DD0003546DFE800F01B27110303002F464DB3E3
:103DE0006078800740F1718031E000BF0126607883
:103DF000C007D2D0E8E700BF04F12400002104F09E
:103E00000FFE0546002D2F46EAD113E0D8F800003A
:103E1000354640F40030C8F80000002D2F46DFD1B1
:103E200008E000BF201D002104F066FD0546002DBE
:103E30002F46D5D1D8F82400616D20F00700002569
:103E40000843C8F824003746607880073DD5A06D48
:103E50004FEAB010042800F27980DFE800F0151F67
:103E60000B0303002E460DB36078400740F17380CA
:103E70002FE000BF04F12400002104F0D1FD05462D
:103E8000002D2E46F0D111E0D8F8000040F40030AB
:103E9000C8F80000002D2E46E6D107E0201D0021C5
:103EA00004F02AFD0546002D2E46DDD1D8F8240069
:103EB000A16D20F4E07000250843C8F8240004E058
:103EC0000125012760788007C1D43E46607840070D
:103ED00041D5D4F8A4004FEA7050042800F2808045
:103EE000DFE800F016200C04040000BFA9460DB363
:103EF0006078000740F17A8031E000BF04F12400CF
:103F0000002104F08DFD0546002DA946F0D111E0F9
:103F1000D8F8000040F40030C8F80000002DA94691
:103F2000E6D107E0201D002104F0E6FC0546002D47
:103F3000A946DDD1D8F82C00D4F8A41020F46000F4
:103F400000250843C8F82C0005E000BF0125012624
:103F500060784007BDD4B1466078000746D5D4F8F4
:103F6000A8004FEA3060042800F21281DFE800F078
:103F70001A241004040000BF2F462DB3E0788007F8
:103F800038D43E466078C00640F1A98041E000BFC9
:103F900004F12400002104F043FD0546002D2F46C6
:103FA000ECD111E0D8F8000040F40030C8F800006F
:103FB000002D2F46E2D107E0201D002104F09CFCDB
:103FC0000546002D2F46D9D1D8F82C00D4F8A810DA
:103FD00020F0E06000250843C8F82C0006E000BF90
:103FE00001254FF0010960780007B8D44F46E0780A
:103FF0008007C6D5A06C4FEA3010032844D8DFE80C
:1040000000F003232D0300BF2E467DB36078C00669
:1040100065D5E06D4FEA3030042800F2C180DFE85A
:1040200000F0434D39030300002D2F464ED0607839
:10403000800658D43E466078400667D4374660789C
:10404000000640F1078175E0D8F8000040F4003028
:10405000C8F80000002D2E46D8D107E0201D02210F
:1040600004F04AFC0546002D2E46CFD1D8F820009A
:10407000A16C20F0300000250843C8F820003E461F
:104080006078C0062BD5C4E7012501266078C006FC
:10409000BFD424E004F12400002104F0C1FC054653
:1040A000002D2F46C3D111E0D8F8000040F40030B5
:1040B000C8F80000002D2F46B9D107E0201D0021CF
:1040C00004F01AFC0546002D2F46B0D1D8F8240084
:1040D000E16D20F4E04000250843C8F8240037468D
:1040E00060788006A6D5206E4FEA3040052800F2A1
:1040F0007380DFE800F0037F5D030303002D2E468D
:1041000000F08180607840067FF598AFD4F8AC006D
:104110004FEA3070052867D8DFE800F004845404C3
:10412000040400BF002D2F4600F085806078000653
:1041300040F19080E06E58B1B0F1005F10D0B0F166
:10414000805F1FD1D8F8000040F40030C8F80000AC
:104150002E466DB1E078C00700F093807EE000BF8E
:10416000201D012104F0C8FB0546002D2E46F1D18B
:10417000D8F82400E16E20F0405000250843C8F82C
:10418000240067E001250126E078C00766D178E0C9
:1041900001250127E07880073FF52CAFF1E600BF4D
:1041A00001250127607880063FF59DAF42E700BFFB
:1041B00004F12400012104F033FC0546002D2E46B5
:1041C000A0D120E004F12400012104F029FC0546DF
:1041D000002D2F46AAD12EE0012501266078400649
:1041E0003FF594AF2AE700BF01250127607800065C
:1041F000A0D42FE0201D012104F07EFB0546002DF8
:104200002E467FF47FAFD8F82400216E20F4E02002
:1042100000250843C8F824003E46607840067FF534
:104220000DAF73E7201D012104F066FB0546002D4C
:104230002F467FF47BAFD8F82C00D4F8AC1020F0D8
:10424000E04000250843C8F82C0037466078000697
:104250003FF570AF3E46E078C00712D0606C03288F
:1042600000F2AC80DFE800F00294A002A9464DB94C
:10427000D8F82000616C20F0030000250843C8F83E
:104280002000B146A078400602D44F461AE000BF95
:10429000D8F8D40340F48070C8F8D403FEF74CF982
:1042A000064600BFD8F8D403C00507D4FEF744F98A
:1042B000801B6428F6D90325032703E0002D2F4631
:1042C00000F080802078C00700F0D280A06F4FEA15
:1042D000F000052800F2B480DFE800F004B8A6047E
:1042E000040400BF002D2E4600F0B980207880071E
:1042F00000F1C38037462078400700F1D3803E4666
:104300002078800600F1E48037462078400600F1EE
:10431000F7803E462078000600F10A813746206883
:10432000010740F11D81D4F88000B0F5805F09D10C
:1043300004F12400022104F073FB002818BF0127B8
:10434000D4F88000D8F8281021F440510843C8F868
:1043500028002068C10640F10681D4F89400B0F529
:10436000807F09D104F12400022104F059FB0028C8
:1043700018BF0127D4F89400D8F82C1021F440710C
:104380000843C8F82C002068000340F11381ECE0DA
:10439000D8F8000040F40030C8F80000002DA9460D
:1043A0007FF470AF64E700BF201D022104F0A4FA7F
:1043B0000546002DA9467FF465AF59E701254FF06A
:1043C00001095FE7D8F84410D4F8B000414011F477
:1043D000407F11D0D8F84410D8F8442042F48032FD
:1043E000C8F84420D8F8442021F4407122F48032E7
:1043F000C8F84420C8F84410B0F5807F40F0B68279
:10440000FEF79AF8064641F2883A0325032700BFD3
:10441000D8F84400800700F1A782FEF78DF8801BD2
:104420005045F5D94EE700BF04F12400012104F006
:10443000F7FA0546002D2E467FF458AF0FE000BF77
:10444000012501262078800717D453E7201D01217C
:1044500004F052FA0546002D2E467FF447AFD8F8F7
:104460002800A16F20F0380000250843C8F8280074
:104470003E46207880077FF53DAF606F052800F24B
:10448000CB81DFE810F00700F1018D010700070084
:10449000070000BF002D2F4600F0EF812078400775
:1044A0007FF52DAFD4F89000052800F2BD81DFE83C
:1044B00010F00700F301830107000700070000BFA9
:1044C000002D2E4600F0F181207880067FF51CAF8C
:1044D000D4F88C004FEA3070052800F2AD81DFE897
:1044E00010F00700F501770107000700070000BF83
:1044F000002D2F4600F0F381207840067FF509AFAC
:10450000D4F898004FEAB020052800F29D81DFE83A
:1045100010F00700F7016B0107000700070000BF5C
:10452000002D2E4600F0F581207800067FF5F6AECE
:10453000D4F89C004FEA7030052800F28D81DFE846
:1045400010F00700F9015F0107000700070000BF36
:10455000002D2F4600F0F781206801073FF5E3AEFC
:10456000C1063FF5FAAE000324D5D4F8A000B0F59B
:10457000003F0FD0B0F5803F06D000284AD1201D63
:10458000002104F0B9F904E004F12400022104F050
:1045900047FA05462E461DB1A07840073FD50DE0ED
:1045A000D8F82C00D4F8A01020F44030002508439F
:1045B000C8F82C003E46A078400730D5D4F88400D7
:1045C000B0F5401F0BD0B0F5001F0FD0B0F5801F25
:1045D00070D1D8F8000040F40030C8F800002F4631
:1045E0006DB1A078C0071ED169E000BF04F12400BE
:1045F000012104F015FA0546002D2F46F1D1D8F817
:104600002800D4F8841020F4401000250843C8F88E
:10461000280004E001250126A0784007CED43746C3
:10462000A078C0074BD0E06CB0F5803F2AD0D8BB53
:10463000D8F8000040F40030C8F800002E464DB312
:10464000206881003FD4810348D4C1025DD4C100F9
:1046500065D481026FD4410078D4B0F1FF3F40F3BC
:104660008680000208D5D8F82800D4F8881020F4F5
:1046700040000843C8F82800002E18BF0126304625
:10468000BDE8F087201D022104F036F90546002D13
:104690002E46D5D1D8F82000E16C20F480300025DA
:1046A0000843C8F820000AE001250126206881009F
:1046B000C9D508E001250127A078C007B3D13E463F
:1046C00020688100BFD504F12400022104F0A8F97C
:1046D000002818BF012620688103B6D5E16F6FF06E
:1046E000010202EB3122022A0AD34FEA31223AB107
:1046F000012A07D1D8F8002042F40032C8F800207F
:10470000002D41D00126C102A1D5D8F82410226F76
:1047100021F000411143C8F82410C10099D558F880
:104720001C1CD4F8B42021F48041114348F81C1C0F
:1047300081027FF590AFD8F82410A26E21F080712D
:104740001143C8F8241041007FF587AF58F81C1CAE
:1047500021F4004148F81C1CD4F8B81058F81C2C5F
:10476000114348F81C1CB0F1FF3F3FF77AAFD8F86F
:104770002010226D21F040511143C8F82010000292
:104780003FF571AF78E700BFD8F8282022F44072D7
:104790001143C8F82810C1027FF559AFB5E700BF33
:1047A00004F12400012104F03BF90546002D2F46B9
:1047B0007FF474AE61E000BF04F12400012104F035
:1047C0002FF90546002D2E467FF47EAE6DE000BF2A
:1047D00004F12400022104F023F90546002D2F46A0
:1047E0007FF48AAE7BE000BF04F12400022104F0D4
:1047F00017F90546002D2E467FF496AE89E000BFDE
:1048000004F12400022104F00BF90546002D2F4687
:104810007FF4A2AE97E000BF012501272078400772
:104820003FF540AE6BE500BF0125012620788006EC
:104830003FF54EAE68E500BF012501272078400610
:104840003FF55EAE65E500BF012501262078000634
:104850003FF56EAE62E500BF012501272068010724
:104860007FF57EAE5FE500BF201D012104F044F816
:104870000546002D2F467FF411AED8F82800616F51
:1048800020F0070000250843C8F8280037462078A4
:1048900040077FF534AD05E6201D012104F02CF81A
:1048A0000546002D2E467FF40FAED8F82C00D4F824
:1048B000901020F0070000250843C8F82C003E4661
:1048C000207880067FF520AD02E600BF201D002184
:1048D00004F012F80546002D2F467FF40DAED8F8EF
:1048E0002800D4F88C1020F0E04000250843C8F8D8
:1048F00028003746207840067FF50BAD00E600BF64
:10490000201D002103F0F8FF0546002D2E467FF400
:104910000BAED8F82C00D4F8981020F4E050002505
:104920000843C8F82C003E46207800067FF5F6AC18
:10493000FEE500BF201D002103F0DEFF0546002D2F
:104940002F467FF409AED8F82C00D4F89C1020F440
:10495000604000250843C8F82C003746206801074E
:104960007FF5FEADDFE400BFD4F8B0004FF6CF73A3
:1049700058F81C2CC0F2FF0300F4407122F47C5262
:1049800003EA10136FF31F30B1F5407F08BF1A43DD
:10499000002548F81C2CD8F844100843C8F84400F7
:1049A000FFF773BC000000002DE9F04381B0002840
:1049B00000F0208142F200090446C5F20029D9F82E
:1049C000000000F00F0088420DD2D9F8000020F05E
:1049D0000F000843C9F80000D9F8000000F00F00EC
:1049E000884240F00781206844F218464207C5F625
:1049F00002060AD52269336803F070039A4204D98B
:104A0000336823F070031A43326002070AD56269E3
:104A1000736803F070039A4204D9736823F070033B
:104A20001A437260C2060AD5A269736803F4E06390
:104A30009A4204D9736823F4E0631A4372608206D1
:104A40000AD5E269B36803F070039A4204D9B368E7
:104A500023F070031A43B26010F002020AD0E36838
:104A6000376807F00F07BB4204D9376827F00F07F4
:104A70003B433360C3073FD0306820F47062D4E911
:104A800001031A433260012856F8182C0AD0032873
:104A900004D002280AD192030BD4ABE0920108D4CF
:104AA000A8E000BFD20504D4A4E000BF520740F143
:104AB000A180884656F8081C21F00701084346F8F3
:104AC000080CFDF739FD054641F2883756F8080C09
:104AD000616800F03800B0EBC10F09D0FDF72CFD84
:104AE000401BB842F2D9032001B0BDE8F08300BFFB
:104AF0002068414600F0020252B1E268336803F0D8
:104B00000F039A4204D2336823F00F031A43326032
:104B1000D9F8002002F00F028A420CD9D9F80020FF
:104B200022F00F020A43C9F80020D9F8002002F051
:104B30000F028A425ED141070AD52169326802F02C
:104B40007002914204D2326822F070021143316047
:104B500001070AD56169726802F07002914204D2BD
:104B6000726822F0700211437160C1060AD5A16912
:104B7000726802F4E062914204D2726822F4E06248
:104B80001143716080060AD5E069B16801F07001D7
:104B9000884204D2B16821F070010843B06000F08F
:104BA000B7F8316848F20C52C9F20502C1F303218B
:104BB000515C336803F00F0301F01F01D25C20FA4F
:104BC00001F102F01F0040F20C02C2F2000221FAD1
:104BD00000F0106040F2040040F20802C2F200004F
:104BE000C2F200020068116001B0BDE8F043FEF7B8
:104BF000F3B900BF012001B0BDE8F0830000000060
:104C000080B500F085F844F2184148F20C53C5F61F
:104C10000201C9F205030A68C2F303229A5C09681B
:104C200001F00F0102F01F02595C20FA02F201F0BC
:104C30001F0040F20C01C2F2000122FA00F00860ED
:104C400040F20801C2F200010A6080BD00000000CD
:104C500080B500F05DF844F2184C48F20C53C5F6EC
:104C6000020CC9F20503DCF80020C2F303229A5CAF
:104C7000DCF8001001F00F0102F01F02595CD04077
:104C800040F20C02C2F2000201F01F0120FA01F111
:104C9000116040F20802C2F200021060DCF8040069
:104CA000C0F30210185C00F01F0021FA00F080BD74
:104CB00080B500F02DF844F2184C48F20C53C5F6BC
:104CC000020CC9F20503DCF80020C2F303229A5C4F
:104CD000DCF8001001F00F0102F01F02595CD04017
:104CE00040F20C02C2F2000201F01F0120FA01F1B1
:104CF000116040F20802C2F200021060DCF8040009
:104D0000C0F30220185C00F01F0021FA00F080BD03
:104D100044F20041C5F602010869C0F3C20003284D
:104D200016D002280ED098BB0868800649F2000011
:104D3000C0F2D03058BF70470968C1F3C101C84004
:104D4000704700BF47F64000C0F27D10704700BFBB
:104D50008A6A886AC0F3051CC86ABCF1000F4B6BF5
:104D60001CD000F00100404200EAD3006FF35F3036
:104D700000EE100A02F003000228B8EE400A0FD03D
:104D800090B90868800613D49FED251A1DE000BF76
:104D900040F60010C0F23D00704700BF0020704791
:104DA0009FED1E1A11E000BF9FED1B1A0DE000BF22
:104DB000086849F20002C0F2D032C0F3C10022FA02
:104DC00000F001EE100AB8EE411A086B9FED153A9B
:104DD0006FF35F2002EE100A086BC0F34620B8EEB6
:104DE000422A013000EE032A00EE10CAB7EE003A64
:104DF000B8EE400A81EE000A32EE031A20EE010AF4
:104E000001EE100AB8EE411A80EE010ABCEEC00AAB
:104E100010EE100A704700BF0024744A20BCBE4B3D
:104E20000024744C0000003970B3F0B581B0044622
:104E3000007844F20046C007C5F6020626D1207865
:104E4000800740F1C280306910F03801B06A3FD06D
:104E5000182908BF5FEA80703AD0E06831680028FE
:104E600062D021F0190108433060FDF765FB05466B
:104E70003068400748D4FDF75FFB401B0228F7D994
:104E8000032001B0F0BD00BF01207047306900F081
:104E90003801B06A102905D018290BD100F00300A1
:104EA000022807D130688003C9D560680028C6D1C0
:104EB00034E100BF6168306800294FD0B1F5A02F00
:104EC00044D0B1F5803F5FD140F4803062E000BF54
:104ED00030684007E06802D5002800F01F81316883
:104EE00021F0190108433060FDF726FB054600BF9D
:104EF0003068400708D4FDF71FFB401B02284FF025
:104F00000300F5D901B0F0BDFDF70EFB41F203013E
:104F100088424FD820697168402821F47C3151D1F2
:104F200041F4003050E000BF21F001003060FDF797
:104F300003FB05463068400747D5FDF7FDFA401BE7
:104F400002284FF00300F5D9DCE700BF40F48020D1
:104F50003060306840F480301CE000BF20F48030C6
:104F60003060306820F480203060FDF7E5FA0546B7
:104F7000306880037FF563AFFDF7DEFA401B6428DD
:104F80004FF00300F4D9BDE720F480303060306882
:104F900020F480203060FDF7CFFA054630688003AA
:104FA0003FF54DAFFDF7C8FA401B6428F6D9032042
:104FB00001B0F0BD7068216920F0FE4040EA016058
:104FC00002E000BF41EA003070602078C00654D58E
:104FD000306900F03801B06A082905D0182919D1C4
:104FE00000F00300012815D13068C00503D5E06941
:104FF000802840F09380FDF797FA41F20301884240
:105000001ED8206A7168202821F0F84132D141F081
:10501000804031E0E0690028306819D040F080001D
:105020003060FDF789FA05463068C005E3D4FDF726
:1050300083FA401B02284FF00300F5D962E700BF56
:10504000F068216A20F07C5040EA0160F06014E0D2
:1050500020F080003060FDF76FFA05463068C0052B
:105060000BD5FDF769FA401B02284FF00300F5D974
:1050700048E700BF41EA806070602078000737D4BD
:10508000207880064ED42078400761D4656A65B3E5
:10509000306900F03800182840F0A080012DB16A76
:1050A000306B3BD001F00302A36A9A4236D1C1F3C0
:1050B0000511E26A914231D10146226B6FF35F2103
:1050C000013A91422AD1C0F34622616B01398A42EA
:1050D00024D1C0F30642A16B01398A421ED1C0F32C
:1050E0000660E16B0139884218D1002001B0F0BDA3
:1050F00060690028706F41D040F001007067FDF7D3
:105100001BFA0546706F8007BAD4FDF715FA401BED
:105110000228F7D9032001B0F0BD00BF012001B083
:10512000F0BD00BFA0690028306845D040F4805031
:105130003060FDF701FA054630688004A3D4FDF71E
:10514000FBF9401B0228F7D9032001B0F0BD00BFD6
:10515000D6F8000440F48070C6F80004FDF7ECF9BE
:10516000054600BFD6F80004C00519D4FDF7E4F9E0
:10517000401B6428F6D9032001B0F0BD20F00100E7
:105180007067FDF7D9F90546706F80077FF578AF36
:10519000FDF7D2F9401B02284FF00300F4D9B1E625
:1051A000A168306F002943D0052939D0012957D192
:1051B00040F001005AE000BF20F480503060FDF75D
:1051C000BBF90546306880047FF55DAFFDF7B4F9A3
:1051D000401B02284FF00300F4D993E6306820F01A
:1051E00080703060FDF7A8F9022D05460CD100BF94
:1051F000306880014CD5FDF79FF9401B02284FF025
:105200000300F5D97EE600BF306880017FF56DAF01
:10521000FDF792F9401B02284FF00300F4D971E624
:1052200040F004003067306F40F001001EE000BF26
:1052300020F001003067306F20F004003067FDF788
:105240007BF9054641F28837306F80077FF51EAF46
:10525000FDF772F9401BB8424FF00300F4D951E654
:1052600020F001003067306F20F004003067FDF758
:1052700063F9054641F28837306F80073FF506AF86
:10528000FDF75AF9401BB8424FF00300F4D939E654
:1052900004F12807B06A40F2F33188438ECF084307
:1052A000591E40EA02104FF47E426FF35F21B06254
:1052B00002EB47204FF4FE0280B2E36B0844A16B7F
:1052C00002EB01414FF0FE4201F4FE0102EB0362EA
:1052D000084402F0FE4108443063F06A4FF6F8716A
:1052E00020F00100F062706BA26C884340EAC200BB
:1052F0007063F06A216C20F00C000843F062F06AE1
:10530000616C20F002000843F062F06A40F48030E3
:10531000F062F06A40F40030F062F06A40F48020FD
:10532000F062F06A40F00100F062306840F0807096
:105330003060FDF701F90446306880013FF5D5AED5
:10534000FDF7FAF8001B02284FF00300F4D9D9E565
:10535000B0B50068002A40684FEA104300F03F0CE7
:10536000C0F3042ECB70C0F3423281F801E081F823
:1053700002C00A7002D00020B0BD00BFDAB24FEA0E
:105380001E14120903F00F03050A00F00F0002EBD0
:10539000820205F00F0503EB4202CA7044EA84035F
:1053A0004FEA1C1405EB43034B7044EA840200EB04
:1053B000420088700020B0BDB0B50068002A836A42
:1053C0004B6003696FF3DF338B60006800F07F0C84
:1053D00081F802C0C0F305430B70C0F3062E81F8BC
:1053E00001E0C0F38052CA7002D00020B0BD00BFFF
:1053F0001B09020C43EA830302F00F024FEA1E145A
:1054000002EB43020A7004EB84034FEA1C14050A02
:1054100000F00F0004EB840205F00F0505EB4303D9
:105420004B7000EB420088700020B0BD000000000F
:10543000002843D0B0B5044690F8210028B90020D8
:1054400084F82000204600F057F8022084F821005C
:105450002168CA20486253204862C868400613D4B5
:105460004FF0FF30C860FDF767F82168CA68520640
:105470000AD40546FDF760F8401BB0F57A7F31D8B5
:105480002168C8684006F5D54FF6BF728868CFF628
:105490008F72251D104088602DCD2843A5692843B3
:1054A0008D682843886043EA02400861204603F083
:1054B0004BFB216820B1FF224A62B0BD012070473A
:1054C000C86C20F00300C8646069E2691043CA6CCC
:1054D0001043C864FF204862012084F821000020A6
:1054E000B0BD00BF032084F821002168CA68FF22F4
:1054F0004A62B0BD0000000010B5B0B001A904467A
:10550000081DB821FBF7C6FA44F200012068C5F671
:105510000001884202D030B010BD00BF4FF48000BF
:1055200001904FF400702D9001A8FEF711FC10B10E
:1055300006A0FBF72BF944F27040C5F602000168A3
:1055400041F40041016030B010BD00BF7274635F70
:105550006D7370696E6974206661696C0D0000007E
:105560002DE9F04381B0044690F8200001284FF067
:10557000020000F095804FF0010384F8203084F899
:1055800021003AB14878CA7891F80290000240EAC6
:10559000024847E04878C20603D500F0EF000A3021
:1055A0004870CA784FF0CD0CA0F10A0891F802902B
:1055B0005FFA88F3A2F10A07FEB203FB0CF306FBC5
:1055C0000CF6DB0AF50AD6B205EB850E092EA9F119
:1055D0000A06A7EB4E0707EB051788BF07F1100275
:1055E000F5B203EB8307D2B205FB0CFCC5B2A8EB06
:1055F000470707EB0313092D88BF03F110005FFA7B
:1056000089F54FEADC23C0B2092D03EB83074FEA8B
:105610000020A6EB470707EB031340EA024888BFC8
:1056200003F1100922680F78CA205062532050629B
:10563000D068400614D44FF0FF30D060FCF77CFFF8
:105640002268D16849060BD4054600BFFCF774FFF9
:10565000401BB0F57A7F19D82268D0684006F5D58E
:105660005FFA89F0790340EA080020F0C00008439F
:105670005060204603F068FA21684FF0FF024A624A
:1056800058B9012084F82100002006E0032084F8A6
:1056900021002168CA68FF224A62002184F8201094
:1056A00001B0BDE8F08300002DE9F047044690F812
:1056B000200001284FF0020008BFBDE8F0870D462A
:1056C000012184F82010164684F82100CA202168A0
:1056D000486253204862C868400614D44FF0FF3037
:1056E000C860FCF729FF2168CA6852060BD4074638
:1056F000FCF722FFC01BB0F57A7F00F28F80216893
:10570000C8684006F4D5886836B140060CD44FF01E
:10571000000E85F803E00AE040060FD44FF0000EBB
:1057200085F803E00DE000BFE8784FEA805E287856
:105730006B78AA781B0243EA004344E0E8784FEA1A
:10574000805E2B784FF0CD0C6F78A3F10A0A5FFAD8
:105750008AF2A7F10A095FFA89F602FB0CF2D00A75
:10576000AA7800EB8008AAEB480806FB0CFADEB228
:1057700008EB0010092E4FEADA2A88BF00F1100367
:10578000A2F10A000AEB8A08C6B206FB0CFCA9EBE0
:105790004808FEB208EB0A18092E4FEADC2688BF3B
:1057A00008F110075FFA83F806EB860CFFB2D3B25C
:1057B000A0EB4C003F02092B00EB061047EA084320
:1057C00088BF00F11002D0B247F67F721843C0F2D2
:1057D0007F0240EA0E0010400860886820F48020B4
:1057E0008860D5E9030210438A6810438860204628
:1057F00003F0AAF921684FF0FF024A6220B10021AC
:1058000084F82010BDE8F087012084F821000020F2
:10581000002184F82010BDE8F08700BF032084F841
:1058200021002168CA68FF224A62002184F8201002
:10583000BDE8F08700000000704700000000000095
:1058400070470000000000007047000000000000EA
:10585000704700000000000020B3B0B5044690F887
:105860002C000D4628B9002084F82D00204600F0B9
:105870001BF8022084F82C002068211DFCF744FC52
:10588000D4E900022946FCF7A7FC44F20000C5F267
:105890000020016841F000410160012084F82C00E3
:1058A0000020B0BD012070472DE9F04387B044F2DD
:1058B000E0400026C5F602000696CDE90466CDE973
:1058C000026650F80C1C40F6000441F4805140F888
:1058D0000C1C50F80C1CC5F6020401F48051019117
:1058E0000199016841F004010160016802AD01F015
:1058F000040101910199016841F00801016001680A
:105900004FF0020801F0080101910199016841F08E
:105910001001016001684FF0030901F010010191CD
:105920000199016841F02001016001680C2701F034
:10593000200101910199016841F040010160016875
:1059400001F0400101910199016841F0800101607D
:105950000068294600F08000019001984FF63F0052
:10596000029004F54060CDE90386CDF814900697C7
:10597000FCF7EEFC04F5A0502946CDE90278CDE90C
:1059800004690697FCF7E4FC48F237102946CDE994
:10599000020804F580500697CDE90469FCF7D8FCAD
:1059A0004FF683702946CDE9020804F5006006979A
:1059B000CDE90469FCF7CCFC4CF203702946CDE933
:1059C000020804F580600697CDE90469FCF7C0FC85
:1059D00001202946CDE9020820460697CDE9046951
:1059E000FCF7B6FC07B0BDE8F08300000000000043
:1059F00090F82C20022A01D10220704790F82C2028
:105A0000012A4FF001020ED1B0B5022280F82C20FD
:105A10000268044610460125FCF7BAFB002284F810
:105A20002C50BDE8B0401046704700000000000058
:105A300090F82C30022B01D10220704703F0FB03B9
:105A4000012B4FF0010313D170B5022380F82C30E5
:105A500003680546184601260C46FCF7A5FB20689E
:105A60000023022808BF052685F82C60BDE8704099
:105A7000184670470000000070B5044602294FF038
:105A8000030084F830000FD001292AD0D1B9A06DCD
:105A9000B0F5807F18BFB0F5007F1FD1204603F01E
:105AA0003FFD60B91DE000BFA06DB0F5807F18BF5D
:105AB000B0F5007F0ED1204603F032FD88B14FF0E3
:105AC000805001E04FF00060616B01250843606386
:105AD00008E000BFA06B0128EDD0F0E7A06B012823
